:100000000C9439010C946A010C946A010C946A01F5
:100010000C946A010C946A010C946A010C946A01B4
:100020000C946A010C946A010C946A010C946A01A4
:100030000C946A010C946A010C946A010C946A0194
:100040000C946A010C946A010C946A010C946A0184
:100050000C946A010C946A010C946A010C946F056B
:100060000C946A010C946A010C946A010C946A0164
:100070000C946A010C946A010C946A010C946A0154
:100080000C946A010C946A010C946A010C946A0144
:100090000C946A010C946A010C946A010C94B905E1
:1000A0000C946A010C946A010C946A010C946A0124
:1000B0000C946A010C946A010C946A010C946A0114
:1000C0000C946A010C946A010C946A010C946A0104
:1000D0000C946A010C946A010C946A010C946A01F4
:1000E0000C946A010C94E5010C9427040C94AC0464
:1000F0000C94D1010C94B8010C94CD010C942604FD
:100100000C9450040C9478020C94DB010C94DF01E5
:100110000C9436040C94DD060C94C7010C94C001B9
:100120000C94E9010C9449040C94F3010C94ED0136
:100130000C9477020C94F7010C947D040C94F2015A
:100140000C94BC010C94D7010C94C4010C94B20122
:10015000000020002300260029002C002F00320080
:100160000001000003010601090100000A0B020959
:100170000C0D0E0807030401000000000000000041
:10018000000000000000000000000000000000006F
:10019000000000000000121110000000000000002C
:1001A000000000000000000000000000000000004F
:1001B00000002200250028002B002E003100340012
:1001C00002010000050108010B01000021002400CC
:1001D00027002A002D003000330001010000040137
:1001E00007010A01050505050705080808080202B8
:1001F00002020A0A080804040404010101010101C1
:1002000001010303030303030303040707070C0CA3
:100210000C0C0C0C0C0C020202020606060606066A
:1002200006060B0B0B0B0B0B0B0B0102102020080F
:100230000810204010204080020102010804020141
:1002400001020408102040808040201008040201B0
:100250008004020180402010080402010804020109
:100260000102040810204080010204081020408090
:10027000DD0611241FBECFEFD1E2DEBFCDBF00E00F
:100280000CBF12E0A0E0B2E0E4E9F8E100E00BBF4F
:1002900002C007900D92A831B107D9F723E0A8E179
:1002A000B2E001C01D92A533B207E1F711E0C9E346
:1002B000D1E000E006C021970109802FFE010E94D5
:1002C0001B0BC833D10780E00807A9F70E9452072B
:1002D0000C94480C0C940000CF93DF9390E0FC0149
:1002E000E65DFD4F24918C519E4FFC018491882343
:1002F000C1F090E0880F991FFC01E653FE4FC591B5
:10030000D491FC01E055FE4FA591B4919FB7F894AC
:100310008881E22FE0958E2388838C91E823EC93EB
:100320009FBFDF91CF9108958150823108F05AC06C
:10033000E82FF0E08827E056FE4F8F4F0C941B0B00
:10034000C001C401B201B801BC01F201C701CD0175
:10035000D101D701DB01DF01E501E901F201ED0186
:10036000F301F701809180008F77809380000895DA
:10037000809180008F7DF9CF80918000877FF5CFBD
:1003800084B58F7784BD089584B58F7DFBCF809130
:10039000B0008F778093B00008958091B0008F7D7A
:1003A000F9CF809190008F7780939000089580918D
:1003B00090008F7DF9CF80919000877FF5CF80915D
:1003C000A0008F778093A00008958091A0008F7D7A
:1003D000F9CF8091A000877FF5CF809120018F77A2
:1003E000809320010895809120018F7DF9CF809125
:1003F0002001877FF5CFCF93DF93282F30E0F901DD
:10040000E659FE4F8491F901E65DFD4FD491F90163
:10041000EC51FE4FC491CC23A1F081110E949401B4
:10042000EC2FF0E0EE0FFF1FE05BFE4FA591B491C3
:10043000EC91ED2381E090E009F480E0DF91CF9131
:10044000089580E090E0FACF1F93CF93DF93282F99
:1004500030E0F901E659FE4F8491F901E65DFD4F68
:10046000D491F901EC51FE4FC491CC23A9F0162F81
:1004700081110E949401EC2FF0E0EE0FFF1FE05578
:10048000FE4FA591B4918FB7F894EC91111108C06B
:10049000D095DE23DC938FBFDF91CF911F9108951C
:1004A000DE2BF8CF3FB7F89480918F0290919002A5
:1004B000A0919102B091920226B5A89B05C02F3F52
:1004C00019F00196A11DB11D3FBFBA2FA92F982F7A
:1004D0008827BC01CD01620F711D811D911D42E075
:1004E000660F771F881F991F4A95D1F708950895C1
:1004F000089520913902260F3327331F2132310509
:10050000ECF42091B902FC0190E080E0243069F025
:1005100082E00895A09139022191AC01475E5D4FC0
:10052000A40FB52FB11D2C930196861798F38091D7
:100530003902680F6093390280E0089581E00895E0
:100540001092B90281E08093B8021092930261E0A8
:1005500084E10E94240261E085E10E942402E9EB2B
:10056000F0E080818E7F808380818D7F808388E42E
:100570008093B80085E48093BC000895CF93DF9307
:1005800091E0909318028823B9F0C091B800D091FF
:10059000BA008091BC008A7B8093BC0060E084E15B
:1005A0000E94240260E085E10E9424020E94A002D1
:1005B000D093BA00C093B800DF91CF9108958F9285
:1005C0009F92AF92BF92CF92DF92EF92FF920F93E2
:1005D0001F93CF93DF93D091E202D13208F0D7C0BE
:1005E000182FC091E1020E9452026B017C018091A0
:1005F000B90281116BC082E08093B9021093B802F6
:100600008FEF8093B7021092B602D093B502A1EC9F
:10061000B2E0E5E9F2E080E0D81391C010929402D4
:1006200080919402CC0FC82BC093940280919302C6
:10063000813009F088C0109293020E9452026B012F
:100640007C01809194028093BB008091BB029091C9
:10065000BC02A091BD02B091BE02892B8A2B8B2BCC
:10066000A1F00E9452020091BB021091BC022091A5
:10067000BD023091BE026C197D098E099F090617D3
:1006800017072807390708F442C08091BC0083FD92
:10069000D8CF85EC8093BC000E9452026B017C0194
:1006A0008091B902823009F450C08091B7028F3F27
:1006B00009F46FC08091B702803209F46CC0809158
:1006C000B702803309F469C084E026C08091BB0280
:1006D0009091BC02A091BD02B091BE02892B8A2BE1
:1006E0008B2B09F484CF0E9452028090BB02909021
:1006F000BC02A090BD02B090BE026C197D098E09AB
:100700009F0986169706A806B90608F070CF809153
:10071000BA020E94BE0285E01092C0021092E2026C
:100720001092BF02DF91CF911F910F91FF90EF9038
:10073000DF90CF90BF90AF909F908F9008959D9144
:1007400091938F5F69CF85EEA5CF8091BB02909189
:10075000BC02A091BD02B091BE02892B8A2B8B2BCB
:1007600009F49ECF0E9452020091BB021091BC027C
:100770002091BD023091BE026C197D098E099F093E
:10078000061717072807390708F08ACFC0CF81E07E
:10079000C3CF80E0C1CF82E0BFCF83E0BDCF1F9346
:1007A000CF93DF93EA01122FDC0111968D919C917A
:1007B000DC01ED91FC910280F381E02D1995C817C1
:1007C000D90729F4812F0E94DF0291E0811190E086
:1007D000892FDF91CF911F910895CF93DF93EC0183
:1007E0008B818823A1F0888191E09093BF02809350
:1007F000E1021092C0021092E20281E00E94DF0248
:1008000091E0811190E0892FDF91CF9108951092AE
:100810008102109280021092C0021092E2020E94A5
:10082000A00287E792E090937D0280937C0288E7A4
:1008300092E090937F0280937E0281E08B83CE01D1
:100840000E94ED03982F8111CECFDDCF0895E09166
:10085000810280918002E81730F4F0E0E45AFD4F05
:10086000808190E008958FEF9FEF0895909181022D
:10087000809180022FEF3FEF981748F4E92FF0E0C6
:10088000E45AFD4F208130E09F5F90938102C901BF
:1008900008958091800290918102891B990B08959F
:1008A000CF92DF92EF92FF920F931F93CF93DF933C
:1008B0007C01CB018A012091BF02222389F0EB0148
:1008C0006B01C40ED51ECC15DD0569F06991D70109
:1008D000ED91FC910190F081E02DC7011995F3CFC6
:1008E000642F0E947902C801DF91CF911F910F916F
:1008F000FF90EF90DF90CF900895CF93DF931F92FA
:10090000CDB7DEB769832091BF022223F9F0209191
:10091000E202203258F021E030E0FC0133832283F0
:1009200090E080E00F90DF91CF9108958091C00218
:10093000E82FF0E0EF53FD4F998190838F5F809314
:10094000C0028093E20281E090E0ECCF61E0CE0152
:1009500001960E947902F7CF90E080E00895CF934E
:10096000DF9300D01F921F92CDB7DEB7660F660FE0
:100970006A5F69831A825B832C833D83FC018181DA
:100980009281FC01248135812530310590F0208150
:1009900031E03093BF022093E1021092C002109226
:1009A000E20221E045E050E0BE016F5F7F4F0E9410
:1009B000CF030F900F900F900F900F90DF91CF917A
:1009C000089530E020E050E040E0CB960C94AF0476
:1009D000FC0180E1689F900111248381948150E0A3
:1009E00040E06081CB960C94AF04CF93DF931F92CD
:1009F0001F92CDB7DEB789836A8380912F039091D0
:100A00003003FC01248135812230310590F02081B2
:100A100031E03093BF022093E1021092C0021092A5
:100A2000E20221E042E050E0BE016F5F7F4F0E9492
:100A3000CF030F900F90DF91CF910895CF93DF9365
:100A4000EC018B819C8130E020E050E040E06A8145
:100A5000CB960E94AF048B819C8130E020E040E087
:100A600050E16981CB96DF91CF910C94AF0485ED75
:100A70008093BC008091BB029091BC02A091BD020A
:100A8000B091BE020796A11DB11D23E0B695A795B2
:100A9000979587952A95D1F72091BC0024FD03C036
:100AA0001092B90208954091BB025091BC0260912E
:100AB000BD027091BE02452B462B472B69F3009770
:100AC000A105B10541F02AE22A95F1F700C001978E
:100AD000A109B109E1CF8091BA020C94BE021F9224
:100AE0000F920FB60F9211242F933F938F939F93E2
:100AF000AF93BF9380918B0290918C02A0918D0255
:100B0000B0918E0230918A0223E0230F2D3758F5E1
:100B10000196A11DB11D20938A0280938B029093B0
:100B20008C02A0938D02B0938E0280918F029091DF
:100B30009002A0919102B09192020196A11DB11D67
:100B400080938F0290939002A0939102B0939202AF
:100B5000BF91AF919F918F913F912F910F900FBEB9
:100B60000F901F90189526E8230F0296A11DB11D26
:100B7000D2CF1F920F920FB60F9211240BB60F9285
:100B80002F933F934F935F936F937F938F939F9395
:100B9000AF93BF93EF93FF938091B900887F803626
:100BA00009F44DC008F040C0883209F4A9C028F506
:100BB000803109F49DC0C8F4882309F4FBC0883053
:100BC00009F496C0FF91EF91BF91AF919F918F91E2
:100BD0007F916F915F914F913F912F910F900BBE3D
:100BE0000F900FBE0F901F901895883109F488C0A0
:100BF000803241F78093B70214C0803409F49DC05D
:100C000040F48033B9F38833E9F68093B70285EC7A
:100C1000B0C0803509F485C0883509F496C08834A1
:100C200089F60E943705CECF883909F48CC038F593
:100C3000883729F050F4883611F0803719F683E0B0
:100C40008093B90210925B0257C0883809F47BC0C8
:100C5000803919F0803809F0B5CF80915B0280327D
:100C600008F071C0E0915B0281E08E0F80935B021F
:100C70008091BB00F0E0E55CFD4F80833DC0803B90
:100C800039F0E0F4803A09F479C0883A09F09ACF53
:100C900084E08093B90210923A0210923902E091F6
:100CA0007C02F0917D0219958091390281110FC06B
:100CB00081E0809339021092190209C0803C09F446
:100CC000A6CF883C09F4A3CF883B09F07BCFE09105
:100CD0003A0281E08E0F80933A02F0E0E75EFD4F2A
:100CE00080818093BB0090913A028091390229C0A3
:100CF000809194028093BB0085EC8093BC0062CF0E
:100D00009091B6028091B502981758F5E091B6021D
:100D100081E08E0F8093B602F0E0EB56FD4F8081AC
:100D2000E9CFE091B60281E08E0F8093B602809108
:100D3000BB00F0E0EB56FD4F80839091B6028091AE
:100D4000B5029817C8F285E8D8CFE091B60281E0E5
:100D50008E0F8093B6028091BB00F0E0EB56FD4F02
:100D600080838091B80281115CCF81E080939302EF
:100D700084EA8093BC001092B90224CF85EC809362
:100D8000BC001092B90280915B02803230F4E09195
:100D90005B02F0E0E55CFD4F108260915B0270E069
:100DA000E0917E02F0917F028BE392E01995109220
:100DB0005B0208CF1092B70234CF1092E602109275
:100DC000E50288EE93E0A0E0B0E08093E702909324
:100DD000E802A093E902B093EA028AE092E09093DD
:100DE000E4028093E302E6EFF2E08EE093E0148207
:100DF0001382158212821182108236968E179F07F7
:100E0000B1F710921A0310921D0310921903109259
:100E1000180310922A0310922D03109229031092A6
:100E200028031092300310922F0380E480932E0346
:100E300080E68093F3028091FB02882319F186EF0C
:100E400092E09093F2028093F1028091010381116C
:100E500012C081E08093010383EF92E0909300033E
:100E60008093FF028DE08093FC028BE08093FD0273
:100E70008CE08093FE028CEF92E09093F0028093DE
:100E8000EF02089583EF92E09093FA028093F902C3
:100E900088E08093F6028AE08093F70289E08093ED
:100EA000F802CDCFCF93DF931F92CDB7DEB7789402
:100EB00084B5826084BD84B5816084BD85B582605F
:100EC00085BD85B5816085BD80916E008160809310
:100ED0006E00109281008091810082608093810079
:100EE0008091810081608093810080918000816089
:100EF000809380008091B10084608093B1008091E4
:100F0000B00081608093B0008091910082608093F6
:100F10009100809191008160809391008091900078
:100F20008160809390008091A10082608093A100F5
:100F30008091A10081608093A1008091A0008160D8
:100F40008093A00080912101826080932101809193
:100F50002101816080932101809120018160809333
:100F6000200180917A00846080937A0080917A00D9
:100F7000826080937A0080917A00816080937A0009
:100F800080917A00806880937A001092C1008EE38D
:100F90000E946C018FE30E946C0180E40E946C014E
:100FA00081E40E946C0182E40E946C0184E40E944E
:100FB0006C0185E40E946C0188E10E946C01F09054
:100FC000F302F0922E0386E090E00E94230B8C0146
:100FD000DC01FC9283EE92E012969C938E93119723
:100FE00013961C92139780E290E015969C938E9333
:100FF00014971093300300932F03109281021092E4
:1010000080021092C0021092E2020E94A00287E7C2
:1010100092E090937D0280937C0288E792E0909327
:101020007F0280937E02DD24D394F801D382C8012D
:101030000E94ED03882309F458C160E080E00E941B
:10104000F50480E496E09093F5028093F40219820F
:10105000E0902F03F0903003D70114968D919C916E
:101060001597892B09F4FCC08C91D092BF02809314
:10107000E1021092C0021092E20220E041E050E052
:10108000BE016F5F7F4FC7010E94CF03882309F421
:10109000E7C0BB24B39425EE322E35ECA32EF70126
:1010A000C480D58001E0C114D10409F400E0802E91
:1010B000912C102FD7012C900E9452022B013C0141
:1010C0008091B902811164C0B092B9020093B80254
:1010D000BFEFB093B7021092B6028FEF800F8093EC
:1010E000B502B092940280919402220C282A209298
:1010F000940280919302813009F08AC01092930289
:101100000E9452022B013C01809194028093BB000B
:101110008091BB029091BC02A091BD02B091BE0231
:10112000892B8A2B8B2BA1F00E9452022091BB02AB
:101130003091BC024091BD025091BE026419750904
:1011400086099709261737074807590708F441C049
:101150008091BC0083FDD8CFA092BC000E945202B7
:101160002B013C018091B902813009F454C0809177
:10117000B602801710F41091B602A5E9B2E0ECE5D2
:10118000F2E080E0811751F19D9191938F5FFACF4A
:101190008091BB029091BC02A091BD02B091BE02B1
:1011A000892B8A2B8B2B09F48BCF0E945202209122
:1011B000BB023091BC024091BD025091BE02641945
:1011C000750986099709261737074807590708F050
:1011D00077CF8091BA020E94BE0210E01092810285
:1011E0001093800218151904D9F590E080E0881555
:1011F000990598F5F70181819281DC01ED91FC91CF
:101200000284F385E02D1995898381E090E0EFCF8A
:101210003092BC00A3CF8091BB029091BC02A09100
:10122000BD02B091BE02892B8A2B8B2B09F49ACF79
:101230000E9452022091BB023091BC024091BD023B
:101240005091BE0264197509860997092617370758
:101250004807590708F086CFBCCFCD2809F41FCF27
:101260001981612F6F76606180E00E94F50463E070
:101270008EEF0E94F504612F80E00E94F5040E9429
:1012800052024B015C0195E0C92ED12CE12CF12CCE
:101290000E945202681979098A099B09683E7340C5
:1012A00081059105A8F3B1E0CB1AD108E108F10856
:1012B000E8EE8E0EE3E09E1EA11CB11CC114D10409
:1012C000E104F10429F7612F616A80E00E94F504CE
:1012D00010E030E020E050E040E0612F8EE293E04B
:1012E0000E94AF041F5F1031A1F780E0A82E80E0BC
:1012F000B82E8EE30E94FB01882E809389028FE333
:101300000E94FB01982E8093880280E40E94FB01DA
:10131000D82E8093870281E40E94FB01E82E8093FF
:10132000860282E40E94FB01F82E8093850283E40A
:101330000E94FB01182F8093840284E40E94FB0129
:10134000082F8093830285E40E94FB01C82E8093BE
:10135000820288E10E94FB018110D4C0911041C03B
:10136000D11020C021E0E21285C0F21286C0112304
:1013700019F1113069F4013009F445C0D110B3C03E
:10138000E11029C0FF2009F478C0F1E0FF1275C018
:10139000113009F072C0002309F442C0013009F095
:1013A0006CC03EC091E0D91268C0E91266C0F91263
:1013B000E1C0113009F0A1C0002309F4EFC0B1E091
:1013C000DB1611F0D1108FC01130A9F2D1108BC0F3
:1013D000EE2009F452C021E0E2124FC0F2124DC0DB
:1013E000D7CFA1E09A1249C0DA1247C0EA121FC152
:1013F000FA12C7C0113009F0CAC0013009F07FC02D
:10140000CC2009F4CDC0E1E0CE1661F09110FEC011
:10141000D11069C0E110DFCFF110B7CF113069F5FD
:10142000C1102BC06BE48091F1029091F2020E94F6
:10143000E8048091F1029091F2020E941E0560E0A2
:101440008091EF029091F0020E94E8040091EF0277
:101450001091F002D80111966C91119713968D910D
:101460009C910E94E104F8016281838194810E9431
:10147000E104B0C0EE2009F4B4C0882309F4AAC086
:1014800060E08091F1029091F2020E94E80460E035
:101490008091EF029091F0020E94E8040091F10225
:1014A0001091F202F8016181838194810E94E1042C
:1014B000D80112966C91129713968D919C910E946F
:1014C000E1040091EF021091F002F8016181838143
:1014D00094810E94E104D80112966C9112971396A0
:1014E0008D919C91C4CF91E0D912C7CFE912C5CF9D
:1014F000F9123CC0113009F451CF1111BECF0111C6
:10150000BCCF10C0F1E08F12B8CF9F1229C0DF12FC
:1015100029C0EF1229C0FF1229C0113071F7023023
:1015200008F0ABCFC110A9CF60E08091F10290919B
:10153000F2020E94E8040091F1021091F202F80117
:101540006181838194810E94E104D80112966C919B
:10155000129713968D919C910E94E1046BE42EC02A
:1015600091108BCFD11089CFE11087CFFF2009F4E4
:10157000C4CF83CFFF2009F4C0CF91E0F9127DCF13
:10158000BCCFFF2009F4B9CFB1E0FB1276CF112315
:1015900009F4B5CF113009F4B2CF6FCFC1100FCF1E
:1015A00066E98091F1029091F2020E94E804809134
:1015B000F1029091F2020E941E0566E98091EF020D
:1015C0009091F0020E94E8048091EF029091F00265
:1015D0000E941E05A114B10409F48BCE0E940000E4
:1015E00088CEB1E0FB1609F4EFCEF11046CF1130F2
:1015F00009F4C1CE111141CF013009F404CF01111A
:101600003CCFE1E0CE1609F40DCF37CF21E09212A6
:1016100034CF21E0D21231CFEE2009F4A7CFF1E090
:10162000EF1609F4AECFA1E0EA1227CFADCFEE203E
:1016300009F49CCFF8CFEE0FFF1F881F8BBF0790D8
:10164000F691E02D19940F931F93CF93DF9382307F
:10165000910510F482E090E0E0913303F0913403BF
:1016600030E020E0B0E0A0E0309799F4211531059A
:1016700009F44AC0281B390B24303105D8F58A817A
:101680009B816115710589F1FB0193838283FE01C2
:1016900011C0408151810281138148175907E0F040
:1016A0004817590799F4109761F012960C93129706
:1016B00013961C933296CF01DF91CF911F910F911A
:1016C00008950093330310933403F4CF21153105AB
:1016D00051F04217530738F0A901DB019A01BD010F
:1016E000DF01F801C1CFEF01F9CF9093340380936C
:1016F0003303CDCFFE01E20FF31F8193919322506C
:10170000310939832883D7CF2091310330913203B7
:10171000232B41F4209102023091030230933203D3
:1017200020933103209100023091010221153105EF
:1017300041F42DB73EB74091040250910502241B9D
:10174000350BE0913103F0913203E217F307A0F477
:101750002E1B3F0B2817390778F0AC014E5F5F4F07
:101760002417350748F04E0F5F1F50933203409304
:101770003103819391939FCFF0E0E0E09CCFCF9332
:10178000DF930097E9F0FC01329713821282A09157
:101790003303B0913403ED0130E020E01097A1F461
:1017A00020813181820F931F2091310330913203C8
:1017B0002817390709F061C0F0933203E093310331
:1017C000DF91CF910895EA01CE17DF07E8F54A814E
:1017D0005B819E0141155105B1F7E901FB83EA8365
:1017E00049915991C40FD51FEC17FD0761F4808111
:1017F00091810296840F951FE901998388838281E4
:1018000093819B838A83F0E0E0E012968D919C9116
:1018100013970097B9F52D913C911197CD01029640
:10182000820F931F2091310330913203281739071B
:1018300039F6309751F51092340310923303B09378
:101840003203A0933103BCCFD383C2834081518143
:10185000840F951FC817D90761F44E5F5F4F8881C9
:101860009981480F591F518340838A819B819383BB
:1018700082832115310509F0B0CFF0933403E09352
:1018800033039ECFFD01DC01C0CF13821282D7CF7C
:04189000F894FFCFFA
:10189400000035038000000000007D045004AC0407
:0818A400260449043604270460
:00000001FF
